{
  "contractName": "A",
  "abi": [
    {
      "inputs": [],
      "name": "a",
      "outputs": [
        {
          "internalType": "uint256",
          "name": "",
          "type": "uint256"
        }
      ],
      "stateMutability": "view",
      "type": "function",
      "constant": true
    },
    {
      "inputs": [],
      "name": "getCA",
      "outputs": [
        {
          "internalType": "address",
          "name": "",
          "type": "address"
        }
      ],
      "stateMutability": "view",
      "type": "function",
      "constant": true
    },
    {
      "inputs": [
        {
          "internalType": "uint256",
          "name": "_n",
          "type": "uint256"
        }
      ],
      "name": "setA",
      "outputs": [],
      "stateMutability": "nonpayable",
      "type": "function"
    },
    {
      "inputs": [
        {
          "internalType": "uint256",
          "name": "_a",
          "type": "uint256"
        },
        {
          "internalType": "uint256",
          "name": "_b",
          "type": "uint256"
        },
        {
          "internalType": "uint256",
          "name": "_c",
          "type": "uint256"
        }
      ],
      "name": "triple",
      "outputs": [
        {
          "internalType": "uint256",
          "name": "",
          "type": "uint256"
        }
      ],
      "stateMutability": "pure",
      "type": "function",
      "constant": true
    }
  ],
  "bytecode": "0x608060405234801561000f575f80fd5b506102e28061001d5f395ff3fe608060405234801561000f575f80fd5b506004361061004a575f3560e01c80630dbe671f1461004e57806310b574a81461006c578063ee919d501461009c578063fd8cf888146100b8575b5f80fd5b6100566100d6565b6040516100639190610124565b60405180910390f35b6100866004803603810190610081919061016b565b6100db565b6040516100939190610124565b60405180910390f35b6100b660048036038101906100b191906101bb565b6100fc565b005b6100c0610105565b6040516100cd9190610225565b60405180910390f35b5f5481565b5f8183856100e9919061026b565b6100f3919061026b565b90509392505050565b805f8190555050565b5f30905090565b5f819050919050565b61011e8161010c565b82525050565b5f6020820190506101375f830184610115565b92915050565b5f80fd5b61014a8161010c565b8114610154575f80fd5b50565b5f8135905061016581610141565b92915050565b5f805f606084860312156101825761018161013d565b5b5f61018f86828701610157565b93505060206101a086828701610157565b92505060406101b186828701610157565b9150509250925092565b5f602082840312156101d0576101cf61013d565b5b5f6101dd84828501610157565b91505092915050565b5f73ffffffffffffffffffffffffffffffffffffffff82169050919050565b5f61020f826101e6565b9050919050565b61021f81610205565b82525050565b5f6020820190506102385f830184610216565b92915050565b7f4e487b71000000000000000000000000000000000000000000000000000000005f52601160045260245ffd5b5f6102758261010c565b91506102808361010c565b925082820261028e8161010c565b915082820484148315176102a5576102a461023e565b5b509291505056fea2646970667358221220beb031f8aca0d76bec7637478618ec53c3e0c441513d2f44eca6041b693679d964736f6c63430008140033",
  "immutableReferences": {},
  "source": "// SPDX-License-Identifier: MIT\npragma solidity >=0.4.22 <0.9.0;\n\ncontract A {\n    function getCA() public view returns(address){\n        return address(this);\n    }\n\n    uint public a;\n\n    function setA(uint _n) public {\n        a = _n;\n    }\n\n    function triple(uint _a,uint _b,uint _c) public pure returns(uint) {\n        return _a*_b*_c;\n    }\n}\n",
  "sourcePath": "C:\\Users\\lmjgm\\Desktop\\Truffle_LikeLion\\0612\\contracts\\A.sol",
  "compiler": {
    "name": "solc",
    "version": "0.8.20+commit.a1b79de6.Emscripten.clang"
  },
  "schemaVersion": "3.4.14",
  "updatedAt": "2023-06-12T02:24:51.975Z",
  "networkType": "ethereum",
  "devdoc": {
    "kind": "dev",
    "methods": {},
    "version": 1
  },
  "userdoc": {
    "kind": "user",
    "methods": {},
    "version": 1
  }
}